:0400000080312628FD
:100008007E1480318B1E09280A2812280B1D0D2802
:100018000E28122881312C21803124280B1F152805
:10002800162824282100131E1A281B2824282000FB
:10003800131E1F282028242881311A2180312428C2
:100048007E10090080312828F001F101F201F30146
:10005800F401F501F60120308400003085001030ED
:100068008131512180317E10200080316428013097
:10007800F0070030F13D20000D0CF900F90C790C67
:100088000139FA00FB017A08A8007B08A900710869
:10009800803AF90081307902031D542898307002A3
:1000A800031C5728582863282000AC01AC0AF0012B
:1000B800F1017808AB007708AA00970196010800BB
:1000C8008031DE2080318B170B1722008D120D1620
:1000D80020002F080319712872287F28AF01031008
:1000E80022000D1E031403187A287D2822000D16FD
:1000F8007F2822000D1220002C0803198428852847
:100108006C28AC016C2880312628083023009F0019
:1001180090309D0004309E0019309B009C010030F7
:100128002000BA000030BB008131632180310030EB
:100138002000BA000030BB0081315D2180310030E1
:100148002000BA000030BB008131692180312000D5
:10015800AD0108000130F4070030F53D7508803A1C
:10016800F70080307702031DBB2804307402031C9B
:10017800BE28BF28C4282000AF01AF0AF401F5014A
:10018800F601F60A080022008C018D01FF302100DB
:100198008C00CF308D00F43023008D001F308C0090
:1001A80024008D018C012100951722009D0101304A
:1001B8009E0008008031C720803181314A2180317A
:1001C80081317521803181310821803181313C2193
:1001D80080318031F42080318031892080310800DD
:1001E80021001508C039173895000C3020009500FB
:1001F8000C30AE000B118B16AE30BA000030BB00CD
:100208008131572180310800043026009300910184
:1002180092013B302000BA000030BB0081316F21D1
:100228008131200013122100131608002000131238
:1002380026001108FC001208FD007D08F8007C0863
:10024800F700200031088A0030080A0081310800D0
:100258000B1120002E089500380839040319352998
:1002680036293B2939088A0038080A0081310800F4
:1002780020009901E13097007B3096001110170893
:10028800F3001608F20031309800080058302100B9
:10029800990098012200960108006400800101314C
:1002A800890B5229003420003B08B9003A08B800ED
:1002B800080020003B08B5003A08B40008002000F8
:1002C8003B08B7003A08B600080020003B08B30016
:1002D8003A08B200080020003B08B1003A08B00014
:0A02E80008001630210097000800FE
:020000040001F9
:04000E00E43FFF3E8E
:00000001FF
