:0400000080313428EF
:100008007E1480318B1E09280A2812280B1D0D2802
:100018000E28122885317525803132280B1F1528A6
:10002800162832282100131E1A281B2824282000ED
:10003800131E1F2820282428853163258031322863
:100048002100911C2828292832282000911C2D28BD
:100058002E28322885319625803132287E100900D5
:10006800803136280C308400213085006430FE0051
:100078000030FF008531B3258031F001F101F20134
:10008800F301F401F501F6012000EC01ED01EE01A8
:10009800EF01A0308400003085003430FE000030CD
:1000A800FF008531B32580317E1020008131212960
:1000B8002000C01B60286228013063280030C80077
:1000C80048080319682869286E28BF09C009BF0AAB
:1000D8000319C00A2100AB1F722873287928013040
:1000E8002000C4000030C50080282B082000C5006F
:1000F80021002A082000C400210029082000C70088
:10010800210028082000C600480803198C288D28DB
:10011800A128FF30C607FF30C73D4808031D9528B2
:1001280096289B282B30C2000030C3009F282D3012
:10013800C2000030C3004208C8001F30C9000030A8
:10014800CA002100D101E028FF302000C907FF3094
:10015800CA3D4908B23E860087010A30A000003037
:10016800A1004008A3003F08A2008331A4238031E6
:1001780020002108A8002008A7008431C524803168
:1001880020002708303E8100FF30C407FF30C53DFE
:10019800FF30C607FF30C73D0A30A0000030A1007D
:1001A8004008A3003F08A2008231E52280312000E8
:1001B8002108C0002008BF0020004A08803AC1007A
:1001C80080304102031DEA2801304902031CED2852
:1001D800EE28022920003F084004031DF428F528D2
:1001E800A8284508803AC10080304102031DFE2836
:1001F80001304402031801290229A82820004808D0
:100208000319072908291229FF30C907FF30CA3DF9
:100218004908B23E86008701480881003E08B400BC
:100228003D08B3004908B23EB5004708B700460884
:10023800B6008331F823803108008431E12481310C
:100248008B170B1722008D120D1220006F0803194F
:100258002E292F293229F001F101EF016C08031929
:100268003629372995297108803AE60080306602D8
:10027800031D402932307002031843294429952967
:100288002000EC01210052082000E600210053085C
:100298002000E700E801E9010530E635E70DE80D43
:1002A800E90D890B51296908A3006808A2006708AD
:1002B800A1006608A0002530A7007330A6006030B2
:1002C800A500C030A4008131C92181312000230854
:1002D8002100A300200022082100A20020002108FC
:1002E8002100A100200020082100A00071082000A2
:1002F800E7007008E600E635E70D0C30E80021302D
:10030800E9006608680786006708693D87002100DC
:100318002008C03F2108C13F0130F0070030F13DFF
:100328002929323070067104031D9B299C2929292B
:100338002000EA01EB01BB290D30E1008630E20024
:100348006B08E7006A08E600E635E70D0C30E800C0
:100358002130E9006608680786006708693D87005C
:10036800403FE300413FE40085318625813101307B
:100378002000EA070030EB3D6A036B04031DC52922
:10038800C629A0292929803134282000AA01A31FC1
:10039800CE29CF29DC29A009A109A209A309A00A0D
:1003A8000319A10A0319A20A0319A30AAA01AA0A8E
:1003B800A71FDF29E029EF29A409A509A609A7098C
:1003C800A40A0319A50A0319A60A0319A70A0130E2
:1003D800A8002808AA060030AE000030AD000030A2
:1003E800AC000030AB0023082204210420040319C8
:1003F800FE29FF29402AA901A90A0D2A0130A035A2
:10040800A10DA20DA30D890B032A0130A80028080D
:10041800A907A31F102A112A022A0130AB35AC0DF7
:10042800AD0DAE0D890B122A23082702031D262ABB
:1004380022082602031D262A21082502031D262A32
:1004480020082402031C292A2A2A332A2008A40265
:100458002108A53B2208A63B2308A73B2B14013003
:10046800A336A20CA10CA00C890B342A0130A902D6
:10047800031D3F2A402A112A2A080319442A452A1B
:10048800502AAB09AC09AD09AE09AB0A0319AC0A8D
:100498000319AD0A0319AE0A2E08A3002D08A200FD
:1004A8002C08A1002B08A000080020004D08860099
:1004B8008701403FCF00413FD0004F0884005008DB
:1004C80085001200253A031D6A2A6B2ACA2A4D089C
:1004D800860087010130810741310318810A210014
:1004E800A801A9010310003003180130F400FF30FF
:1004F800AA00FF30AB0020004D0886008701403F6E
:10050800D700413FD80057088400580885001200DA
:10051800643A0319902A912A9B2A5708840058089C
:1005280085001200693A031D9A2A9B2AC02A4E08A0
:100538008600870101088400850102308107003F99
:10054800D300013FD4005708013ECF000030583D8A
:10055800D0004D08860087014F08C03F5008C13FB2
:100568004C08BE004B08BD005408C0005308BF002B
:1005780080315C208231E42A20004D088600870102
:100588000130810741310318810AE42A4D088600A9
:100598008701403FCF00413FD0004F0884005008FA
:1005A80085000008D100D2015108A2005208A3001A
:1005B8004C08A5004B08A400833145238231C02A8A
:1005C80008002000A601A11FEA2AEB2AF22AA009A6
:1005D800A109A00A0319A10AA601A60AA31FF52AC0
:1005E800F62AFF2AA209A309A20A0319A30A0130BD
:1005F800A4002408A606A701A801200821040319BD
:10060800062B072B362BA501A50A132B0130A03585
:10061800A10D890B0B2B0130A4002408A507A11FED
:10062800162B172B0A2B0130A735A80D890B182B71
:1006380021082302031D222B20082202031C252B3C
:10064800262B2B2B2008A2022108A33B27140130BC
:10065800A136A00C890B2C2B0130A502031D352BCC
:10066800362B172B260803193A2B3B2B402BA709AF
:10067800A809A70A0319A80A2808A1002708A000A2
:10068800080020002408250403194B2B4C2B522B5F
:1006980024082504031D512B522B572B2208853182
:1006A800FF258331A32B24088600250887004931BC
:1006B800160001040319612B622B822B2408860083
:1006C800250887004931403FA600413FA70024087C
:1006D8008600250887004231403FA800413FA90015
:1006E8002908803AAA002708803A2A02031D7E2B8F
:1006F800260828020318812B822BA32B200024080C
:1007080086002508870042312408840025088500D2
:10071800403F0007A6000131413F003DA7002608E1
:1007280086002708870022088100240886002508FB
:10073800870042310130810741310318810A0800DE
:100748002000A601A31FA92BAA2BB12BA209A3093C
:10075800A20A0319A30AA601A60AA11FB42BB52B46
:10076800BA2BA009A109A00A0319A10A200821048B
:100778000319BF2BC02BE92BA501A50ACC2B0130EF
:10078800A035A10D890BC42B0130A4002408A507AE
:10079800A11FCF2BD02BC32B21082302031DD62B3F
:1007A80020082202031CD92BDA2BDE2B2008A202F8
:1007B8002108A33B0130A136A00C890BDF2B0130A7
:1007C800A502031DE82BE92BD02B26080319ED2BD6
:1007D800EE2BF32BA209A309A20A0319A30A2308E3
:1007E800A1002208A00008002000B71BFC2BFD2B4D
:1007F800022C3708BC003608BB00042CBB01BC0126
:10080800B901BA01182C20302000A2000030A30042
:100818003408A5003308A40083314523833101300F
:100828002000B9070030BA3D3A08803AB8003C08C1
:10083800803A3802031D222C3B083902031C252C60
:10084800262C072C20003408AC003308AB003508F0
:1008580084315C248331080001302100AE07003068
:10086800AF3D20000D0CF900F90C790C0139FA00A4
:10087800FB017A082100AC007B08AD002F08803A04
:10088800F90081307902031D4B2C98302E02031C8D
:100898004E2C4F2C5B2CF601F60A2100AE01AF015D
:1008A8007808D3007708D200200097019601080045
:1008B8002000AF00B101B201742C3008AD00AE01C8
:1008C8002D08A2002E08A3002C08A5002B08A400C0
:1008D80083314523843101302000B1070030B23D17
:1008E80031082F07AD002D08860087010108B000E8
:1008F8003008031D802C812C612C0800083023004F
:100908009F0090309D0004309E0019309B009C0190
:1009180000302000A0000030A1008531E42584319A
:1009280000302000A0000030A1008531DB25843193
:1009380000302000A0000030A1008531ED25843171
:100948002000ED01080020005C08E0005B08DF00E3
:10095800B82C5A08CC005908CB005F30CD005D0890
:10096800CE0082315922843120005F08840060085B
:1009780085001200031DC12CC22CAD2CD901DA014F
:10098800080020002808803AA90080302902031DA9
:10099800CF2C013027020318D22CD32CE02C2000B6
:1009A8002709A9002809AA00A90A0319AA0A2908D7
:1009B800A7002A08A800E02C0800853113258431F7
:1009C80086310626843186311126843185315125B8
:1009D800843185313E2584318531A52584318531A1
:1009E8002A25843184318224843108000130210091
:1009F800B0070030B13D3108803AF7008030770207
:100A0800031D082D04303002031C0B2D0C2D122D54
:100A18002000EF01EF0A2100B001B1010800220017
:100A28008C018D01FF3021008C00CF308D00F43017
:100A380023008D0017308C0024008D018C012100CB
:100A4800951722009D0101309E000800210015081D
:100A5800C039173895000C30200095000C30EE0096
:100A68000B118B16FA30A0000430A1008531D22575
:100A7800853108004D3020009B009A01911021001B
:100A8800911415302000A0000630A1008531C92539
:100A98008531073020009C000800043026009300B0
:100AA8009101920130302000A0000430A10085316E
:100AB800F6258531200013122100131608002000A6
:100AC800131226001108FC001208FD007D08F8002A
:100AD8007C08F700210057088A0056080A0085316B
:100AE80008000B1120006E08950021005E085F04C5
:100AF80003197F2D802D852D5F088A005E080A0066
:100B08008531080063302000E5000030D900DA00A4
:100B18006208DC006108DB006530DD008431A72451
:100B2800853108002000911021005408550403194C
:100B38009E2D9F2DA42D55088A0054080A00853142
:100B4800080020009901E13097007B3096001110D1
:100B58001708F3001608F200313098000800640006
:100B6800800101310130FE020030FF3B7F087E0426
:100B7800031DB42D00342000A000111EC42DC52D66
:100B8800C12D200823009A00080020002108210018
:100B9800D500200020082100D400080020002108EA
:100BA8002100DF00200020082100DE0008002000CE
:100BB80021082100DB00200020082100DA000800BD
:100BC800200021082100DD00200020082100DC0091
:100BD8000800200021082100D90020002008210059
:100BE800D8000800200021082100D7002000200894
:100BF8002100D60008002000A10021088531BF256A
:100C0800853108005830210099009801220096018A
:100C1800080025346434203400341630210097004D
:0A0C280008002000EC01EC0A0800AF
:020000040001F9
:04000E00E43FFF3E8E
:00000001FF
